:0400000080310E2815
:100008007E1480314101161A0C1E0C2880317F2085
:100018007E100900803110287E1040011328272007
:1000280080314001981443010C146300000043011F
:100038000C10400198105230F2002A30890B222807
:10004800F20B222815282E208031372080317A2083
:100058008031732844018E018F0191019301900131
:100068009201940108004001980199019A019B01AD
:100078009C01FD309200FF309300940095000F30F2
:100088009600FD307D018C00FF309600A000AA008C
:100098000730B4008D019701A101AB01B5018E01B4
:1000A8009801A201AC01B601FF308F009900A300AE
:1000B800AD000730B700FF3090009A00A400AE00F2
:1000C8000F30B8009101920193019B019C019D01A1
:1000D800A501A601A701B901BA01BB0108004101A8
:1000E8000C100B140030F001F1017E281B30430185
:0800F8008C000800080008005C
:020000040001F9
:04000E008C3F2F3FB5
:04001400FF3FFF3F6C
:00000001FF
