:0400000080310E2815
:100008007E1480314101161A0C1E0C2880317E2086
:100018007E100900803110287E10400113281F200F
:1000280080318B174001981463000000400198103C
:100038000C1816281C2824208031332080312D28C4
:1000480044018E018F019101930190019201940165
:1000580008000C100B140030F201F3017D28400158
:10006800980199019A019B019C01FD309200FF3093
:100078009300940095000F309600FC307D018C00B1
:10008800FF309600A000AA000730B40001308D00B0
:100098009701A101AB01B5018E019801A201AC0144
:1000A800B601FF308F009900A300AD000730B700FC
:1000B800FF3090009A00A400AE000F30B800910104
:1000C8000130920093019B019C019D01A501A601AD
:1000D800A701B901BA01BB018E30F2000030F3006C
:1000E80078204101161608007308F1007208F00024
:1000F800080008007D01131C08008228700871049C
:1001080003198B2871088A0070080A0080317D0164
:06011800131008000800AE
:020000040001F9
:04000E008C3F273FBD
:04001400FF3FFF3F6C
:00000001FF
