:04000000803114280F
:100008007E1480314101161E0A280B2812280C1E66
:100018000E280F2812288031A82080317E10090070
:10002800803116287E10400180316B2840019801EC
:1000380099019A019B019C01FD309200FF309300C9
:10004800FF309400FF3095000F309600FC307D01A2
:100058008C00FF309600FF30A000FF30AA00073068
:10006800B40001308D009701A101AB01B5018E01EB
:100078009801A201AC01B601FF308F00FF30990052
:10008800FF30A300FF30AD000730B700FF3090000D
:10009800FF309A00FF30A400FF30AE000F30B800E8
:1000A80091010130920093019B019C019D01A501E2
:1000B800A601A701B901BA01BB01BB30F4000030A9
:1000C800F5008031B12080314101161608008031D9
:1000D800952080318B17400198146300000040017F
:1000E80098100C1C7828792875286F2880311428D6
:1000F80072087304031981288228872873088A00E4
:1001080072080A0080317D011310080041010C10AB
:100118000B140030F4000030F5008031B620803137
:10012800080080319F20803180311A208031803151
:100138008A208031080044018E018F0191019301CA
:1001480090019201940108007D01131CAC28AD2890
:10015800B02880317C20803108007508F3007408CD
:10016800F20008007508F1007408F00008000800A3
:020000040001F9
:04000E008C3F273FBD
:04001400FF3FFF3F6C
:00000001FF
