:04000000803117280C
:100008007E1480314101161A0C1E0E288031F12011
:10001800803115280B1B1A1E1528101E1528803133
:10002800E6207E100900803119287E1040011C2826
:10003800432080318B170B17D12080314001981451
:1000480063000000400198103A2080310F087502C3
:10005800031D30280E087402031828285230F600B1
:100068002A30890B3528F60B352822287A011E08F4
:10007800F500F4011D08F4070318F50A08007B20B1
:100088008031842080314C208031C0208031D928B3
:100098007A01A7011030A8001630A9000430AC007E
:1000A800980197019601AA01AD01AB01A301A40132
:1000B800A5010130A100A20118309F009A018C010E
:1000C8008D01BC308E0002308F0092019301AE0189
:1000D800AF01B001410190111012F230F40000306C
:1000E800F500D4201A1695307A01A60008004401BC
:1000F8008E018F01910193019001920194010800F2
:100108004001980199019A019B019C01FD309200E0
:10011800FF309300940095000F309600FD307D016C
:100128008C00FF309600A000AA000730B4008D01B3
:100138009701A101AB01B5018E019801A201AC01A3
:10014800B601FF308F009900A300AD000730B7005B
:10015800FF3090009A00A400AE000F30B800910163
:10016800920193019B019C019D01A501A601A70194
:10017800B901BA01BB0108000430460190008F01A3
:1001880091011E308D008C01F401F501E12041013F
:100198008D13803046018E00080046018E17080036
:1001A8007508F3007408F200080041010C100B14E4
:1001B8000030F401F501E02808007508F100740822
:1001C800F00008001012720873040319080073087D
:0E01D8008A0072080A00803108000800080042
:020000040001F9
:04000E008C3F273FBD
:04001400FF3FFF3F6C
:00000001FF
