:04000000803114280F
:100008007E1480314101161E0A280B2812280C1E66
:100018000E280F2812288031A12080317E10090077
:10002800803116287E1040018031602840019801F7
:1000380099019A019B019C01FD309200FF309300C9
:10004800FF309400FF3095000F309600FD307D01A1
:100058008C00FF309600FF30A000FF30AA00073068
:10006800B4008D019701A101AB01B5018E01980182
:10007800A201AC01B601FF308F00FF309900FF30BC
:10008800A300FF30AD000730B700FF309000FF300D
:100098009A00FF30A400FF30AE000F30B800910185
:1000A800920193019B019C019D01A501A601A70155
:1000B800B901BA01BB0108008031772080314001C5
:1000C800981443010C146300000043010C10400114
:1000D80098105230F2002A30890B7028F20B7028E1
:1000E80063288031142880318F20803180311A2094
:1000F800803180319D20803180318420803108001A
:1001080041010C100B140030F0000030F100803178
:1001180098208031080044018E018F0191019301DC
:1001280090019201940108007108F4007008F3002E
:0C01380008001B3043018C000800080088
:020000040001F9
:04000E008C3E2F3FB6
:04001400FF3FFF3F6C
:00000001FF
