:0400000080312528FE
:100008007E1480314101161E0A280B2813280C1E65
:100018000E280F28132881313421803123280B1F03
:100028001628172823281A1E1A281B282328101ECA
:100038001E281F2823288031EE20803123287E1097
:100048000900803127287E1040018031A328400113
:10005800980199019A019B019C01FD309200FF30A3
:100068009300FF309400FF3095000F309600FD306C
:100078007D018C00FF309600FF30A000FF30AA0001
:100088000730B4008D019701A101AB01B5018E01C4
:100098009801A201AC01B601FF308F00FF30990032
:1000A800FF30A300FF30AD000730B700FF309000ED
:1000B800FF309A00FF30A400FF30AE000F30B800C8
:1000C8009101920193019B019C019D01A501A6014B
:1000D800A701B901BA01BB0108007A01A7011030D4
:1000E800A8001630A9000430AC00980197019601C9
:1000F800AA01AD01AB01A301A401A5010130A10032
:10010800A20118309F009A018C018D01BC308E002D
:1001180002308F0092019301AE01AF01B00141019D
:10012800901110123530F6000130F70081312C2182
:10013800803141011A1695307A01A60008008031F5
:10014800DE2080318B170B1781313121803140013E
:100158009814630000004001981081311C218031FF
:100168007A010F087702031DBB280E0876020318D0
:10017800BE28BF28B1285230F8002A30890BC2287F
:10018800F80BC228AB28803125280430460190009E
:100198008F0191011E308D008C010030F600003077
:1001A800F70081312221803141018D1380304601D1
:1001B8008E00080081311321803180312B2080315D
:1001C8008031712080318031C9208031813108210E
:1001D8008031080041011012740875040319F528CC
:1001E800F628FB2875088A0074080A008031080080
:1001F800C93400343134013400340034003400345C
:10020800223401340034003441010C100B14003046
:10021800F6000030F70081312721813108004401C0
:100228008E018F01910193019001920194010800C0
:100238007A011E08F7001D08F60008007708F1008B
:100248007608F00008007708F3007608F200080046
:100258007708F5007608F400080046018E170800B4
:040268000800080082
:020000040001F9
:04000E008C3F273FBD
:04001400FF3FFF3F6C
:00000001FF
