:0400000080312528FE
:100008007E1480314101161E0A280B2813280C1E65
:100018000E280F28132886310D26803123280B1F20
:100028001628172823281A1E1A281B282328101ECA
:100038001E281F2823288531C525803123287E10B6
:100048000900803127285A3084000030850010309C
:10005800863116268031A03084000030850020309B
:100068008631162680317E10400180313B2885314B
:10007800112580314C30F0000630F10086312E26F3
:1000880080314930F0000630F10086312226803177
:100098008B170B173F304001D0008530D1008531D8
:1000A8008825803186314626803153304001D00082
:1000B8008530D100853188258031863142268031CE
:1000C800003A031968286928612843010C14630061
:1000D800000043010C108531A7258031003A03192F
:1000E800762877286F28B9304001D0008430D100B5
:1000F8008531882580314001030E0139FF3A0139E5
:10010800D5005508E904D9286630D0008530D100DB
:10011800853188258031EC28FE30D0008130D1002F
:100128007A010E084001D500D6017A010F08400176
:10013800D700D8015708D800D70155085707D2006B
:100148005608583DD30085318825803186313426BC
:1001580080317A010F087102031DB4280E0870025D
:100168000318B728B828AA28EC286A30D0008430A9
:10017800D100853188258031863142268031003A88
:100188000319C728C828C028010012304001D00030
:100198008330D1006908D500D6015508D200560829
:1001A800D300853188258031EC286908D500D6012F
:1001B8005608003A0319E128C9285508013A0319D5
:1001C8008828033A03199028063A0319B928C92838
:1001D800863142268031003A0319F328F428EC28A6
:1001E8004001E90159288031252840013C08860052
:1001F8008701403FBE00413FBF003E0884003F08E2
:1002080085001200253A031D0A290B2970293C088C
:10021800860087010130810741310318810ADA011C
:10022800DB010310003003180130E800FF30DC0068
:10023800FF30DD003C0886008701403FC600413F93
:10024800C70046088400470885001200753A031D58
:100258002E292F2966293D08860087010108840078
:10026800850102308107003FC200013FC3004608F4
:10027800013EBE000030473DBF003C0886008701B4
:100288003E08C03F3F08C13F55293B08B0003A0827
:10029800AF004308B2004208B10081318B218031A0
:1002A8008A2946088400470885000008BE00BF0167
:1002B8003F08003A0319612966293E08753A03196F
:1002C8004929662940013C088600870101308107D9
:1002D80041310318810A8A293C0886008701403F7A
:1002E800BE00413FBF003E0884003F08850000086B
:1002F800C000C1014008F2004108F3003B08F500C6
:100308003A08F40082315C228031662908004001F5
:10031800DD1F8F29902995290130B6000030B700DC
:1003280099295D08B7005C08B6005B08B5005A0853
:10033800B4001F30B8000030B9004101BF01D42912
:10034800FF304001B807FF30B93D3808A03E8600AD
:1003580087010A30F0000030F1003208F30031085C
:10036800F2008331D52381317008303E8100FF309F
:100378004001B607FF30B73DFF30B407FF30B53D49
:100388000A30F0000030F1003208F3003108F200C2
:1003980083316123813171084001B2007008B100D6
:1003A8004001380839040319DA29DB29EE29310814
:1003B8003204031DE029E129A4293708803AB30053
:1003C80080303302031DEA29013036020318ED2973
:1003D800EE29A42940013008A7002F08A6003808F4
:1003E800A03EA8003508AA003408A90083319D233F
:1003F8008131080041344434433443342034543484
:10040800683472346534733468346F346C346434EB
:10041800203449346E34743465347234723475342B
:10042800703474342E3420340A3442346C346F34CB
:1004380063346B34203475346E34743469346C34FA
:1004480020344134443443344334203472346534E2
:100458006134643420346C346F34773465347234E6
:10046800653464342034623465346C346F347734E2
:1004780020347534703470346534723420347434F4
:10048800683472346534733468346F346C3464346B
:100498002034763461346C347534653420346F34E8
:1004A80066343A340A34253475340D340A34003449
:1004B800740875040319612A622A682A7408750485
:1004C800031D672A682A6D2A7208853198258231AA
:1004D800B82A740886007508870049311600010497
:1004E8000319772A782A982A7408860075088700DD
:1004F8004931403FF600413FF7007408860075080F
:1005080087004231403FF800413FF9007908803ABE
:10051800FA007708803A7A02031D942A760878024E
:100528000318972A982AB82A74088600750887003D
:1005380042317408840075088500403F0007F600C2
:100548000131413F003DF7007608860077088700B3
:1005580072088100740886007508870042310130EE
:10056800810741310318810A080040019801990167
:100578009A019B019C01FD309200EF309300FF30FF
:100588009400FF3095000F309600FC307D018C0000
:10059800EF309600FF30A000FF30AA000730B4000B
:1005A80001308D009701A101AB01B5018E019801C1
:1005B800A201AC01B601FF308F00FF309900FF3077
:1005C800A300FF30AD000730B700FF309000FF30C8
:1005D8009A00FF30A400FF30AE000F30B8007C0155
:1005E800BD0101307B018D00113098007D01910122
:1005F8000130920093019B019C019D01A501A60178
:10060800A701B901BA01BB014F30F0000630F10073
:10061800863122268231410116160800453472348B
:1006280072346F3472343A3420344E346F34203498
:1006380074347234693467346734653472342034FE
:1006480064346534743465346334743465346434C0
:1006580020346F34723420346D3475346C3474340F
:10066800693470346C3465342034743472346934C9
:1006780067346734653472347334203464346534D1
:100688007434653463347434653464340A347734C8
:10069800683469346334683449346E347434653486
:1006A8007234723475347034743420343D342034E8
:1006B800253475340D340A340034F501F601700818
:1006C80071040319682B692B982BF701F70A752B0E
:1006D8000130F035F10D890B6D2B0130F4007408F1
:1006E800F707F11F782B792B6C2B0130F535F60DB8
:1006F800890B7A2B71087302031D842B7008720210
:10070800031C872B882B8D2B7008F2027108F33B92
:1007180075140130F136F00C890B8E2B0130F7027D
:10072800031D972B982B792B7608F1007508F0009C
:1007380008004001AA1BA12BA22BA72B2A08AE0058
:100748002908AD00A92BAD01AE01AB01AC01BD2B51
:100758002030F2000030F30040012708F500260899
:10076800F40082315C22833101304001AB07003054
:10077800AC3D2C08803AFD002E08803A7D02031D0E
:10078800C72B2D082B02031CCA2BCB2BAC2B4001EB
:100798002708FC002608FB002808843193248331AD
:1007A8000800700871040319DA2BDB2B042CF501FF
:1007B800F50AE72B0130F035F10D890BDF2B0130FD
:1007C800F4007408F507F11FEA2BEB2BDE2B7108F8
:1007D8007302031DF12B70087202031CF42BF52B16
:1007E800F92B7008F2027108F33B0130F136F00C76
:1007F800890BFA2B0130F502031D032C042CEB2B7B
:100808007308F1007208F00008007A018C018D016C
:10081800EE308E0002308F009201930198019A0108
:1008280018309F000130A100A201A301A401A50175
:10083800AE01AF01B001B101B201A7011030A800AB
:100848001630A900AA01AB010430AC00AD01953007
:10085800A6004101901110125030F0000630F1004E
:1008680086312E26843141011A160800F5340434E5
:1008780000340034003400343A3406340034003490
:10088800A7340534423406340034003400340034CC
:1008980000340034003400340034003400340034B0
:1008A80000340034003400340034003400340034A0
:1008B800003400340034003400340034EC3405349F
:1008C800E0340534003400340034003449346E34E4
:1008D800743465347234723475347034743420343A
:1008E8006F346E3420344334683461346E34673482
:1008F80065340A340A3452346534733465347434D4
:10090800743469346E3467342034443465346D3457
:100918006F342E342E342E340D340A340034400112
:10092800A500A301A401AB2C2208A000A101200866
:10093800F2002108F3007C08F5007B08F4008231FE
:100948005C22843101304001A3070030A43D230814
:100958002507A0002008860087010108A2002208B8
:10096800031DB72CB82C982C080044346534763411
:1009780069346334653420344134773461346B34FA
:1009880065340A34543472346934673467346534EE
:100998007234653464342034623479343A3420341F
:1009A8000D340A34003440014B08CF004A08CE0009
:1009B800E82C4908BB004808BA004E30BC004C0877
:1009C800BD008031F920843140014E0884004F0871
:1009D80085001200031DF12CF22CDD2CC801C90181
:1009E800080048304C019C0080309A0026309B005B
:1009F8004430980099010030F0000030F100853152
:100A0800EC2584310030F0000030F1008531E0251C
:100A180084314001E201E301080086310326853173
:100A28008231B92285318431092485318531772590
:100A380085318431F524853185312A258531863102
:100A48003E2685318531F825853108000430460178
:100A580090008F01910101308D008C010030F00071
:100A68000030F10086311C26853141018D13E030BC
:100A780046018E0008000A34443465346D346F34FE
:100A8800203449346E3469347434693461346C34D4
:100A980069347A34653464340D340A3400340A34E1
:100AA80047346F3469346E346734203474346F34A7
:100AB800203453346C346534653470340D340A345E
:100AC8000A34003457346134743463346834643419
:100AD8006F3467342034543469346D346534723477
:100AE8000D340A3400344B01960102308D008E011A
:100AF8008F019001910102309200930194019501B8
:100B0800970180308C00080052304001D40000303A
:100B1800C800C9005108CB005008CA005430CC00A6
:100B28008431D72485310800F1008531A725853126
:100B3800003A0319A02DA12D992D7108F0008631D6
:100B48003A2685310800F00141010F1EAC2DAD2D6C
:100B5800B42D4C019B1EB12DB22DB42DF001F00A1D
:100B68007008080040016A086B040319BC2DBD2DEC
:100B7800C22D6B088A006A080A0085317D011310AE
:100B880008004101101240016C086D040319CD2DB5
:100B9800CE2DD32D6D088A006C080A008531080017
:100BA8002A34053446340634003400340034003422
:100BB8001C34063400340034700871040319E52D20
:100BC800E62DEB2D71084001DF007008DE000800FB
:100BD800700871040319F12DF22DF72D71084001E9
:100BE800E1007008E000080041010C100B1400300F
:100BF800F0000030F10086312826853108004401D4
:100C08008E018F01910105309300900192019401AA
:100C180008007D01131C112E122E152E8531B625C4
:100C280086310800640080010131890B172E0034D9
:100C380071084001E5007008E400080071084001EF
:100C4800EB007008EA00080071084001E70070082E
:100C5800E600080071084001ED007008EC0008008B
:100C68007A011E08F1001D08F000080070084C0108
:100C780097000800173043018C0008004C011B0C3A
:100C88000139080046018E1708004001691508005F
:0A0C98004001E914080008000800FC
:020000040001F9
:04000E008C3F2F3FB5
:04001400FF3FFF3F6C
:00000001FF
